{
  "_format": "hh-sol-artifact-1",
  "contractName": "Erc712Factory",
  "sourceName": "contracts/Erc712Factory.sol",
  "abi": [
    {
      "anonymous": false,
      "inputs": [
        {
          "indexed": false,
          "internalType": "address",
          "name": "nft",
          "type": "address"
        }
      ],
      "name": "NewNft",
      "type": "event"
    },
    {
      "inputs": [
        {
          "internalType": "string",
          "name": "name",
          "type": "string"
        },
        {
          "internalType": "string",
          "name": "symbol",
          "type": "string"
        }
      ],
      "name": "createNft",
      "outputs": [
        {
          "internalType": "address",
          "name": "nft",
          "type": "address"
        }
      ],
      "stateMutability": "nonpayable",
      "type": "function"
    },
    {
      "inputs": [
        {
          "internalType": "address",
          "name": "nft",
          "type": "address"
        }
      ],
      "name": "viewNftCreator",
      "outputs": [
        {
          "internalType": "address",
          "name": "creator",
          "type": "address"
        }
      ],
      "stateMutability": "view",
      "type": "function"
    }
  ],
  "bytecode": "0x608060405234801561001057600080fd5b506129f5806100206000396000f3fe608060405234801561001057600080fd5b50600436106100365760003560e01c80632a9dd79f1461003b5780634f138e8c1461007d575b600080fd5b6100616004803603602081101561005157600080fd5b50356001600160a01b03166101aa565b604080516001600160a01b039092168252519081900360200190f35b6100616004803603604081101561009357600080fd5b8101906020810181356401000000008111156100ae57600080fd5b8201836020820111156100c057600080fd5b803590602001918460018302840111640100000000831117156100e257600080fd5b91908080601f016020809104026020016040519081016040528093929190818152602001838380828437600092019190915250929594936020810193503591505064010000000081111561013557600080fd5b82018360208201111561014757600080fd5b8035906020019184600183028401116401000000008311171561016957600080fd5b91908080601f0160208091040260200160405190810160405280939291908181526020018383808284376000920191909152509295506101c8945050505050565b6001600160a01b039081166000908152602081905260409020541690565b60006060604051806020016101dc906104a2565b6020820181038252601f19601f820116604052509050600084846040516020018083805190602001908083835b602083106102285780518252601f199092019160209182019101610209565b51815160209384036101000a600019018019909216911617905285519190930192850191508083835b602083106102705780518252601f199092019160209182019101610251565b6001836020036101000a03801982511681845116808217855250505050505090500192505050604051602081830303815290604052805190602001209050808251602084016000f59250826001600160a01b0316634cd88b7686866040518363ffffffff1660e01b8152600401808060200180602001838103835285818151815260200191508051906020019080838360005b8381101561031b578181015183820152602001610303565b50505050905090810190601f1680156103485780820380516001836020036101000a031916815260200191505b50838103825284518152845160209182019186019080838360005b8381101561037b578181015183820152602001610363565b50505050905090810190601f1680156103a85780820380516001836020036101000a031916815260200191505b50945050505050600060405180830381600087803b1580156103c957600080fd5b505af11580156103dd573d6000803e3d6000fd5b50506040805163f2fde38b60e01b815233600482015290516001600160a01b038716935063f2fde38b9250602480830192600092919082900301818387803b15801561042857600080fd5b505af115801561043c573d6000803e3d6000fd5b5050506001600160a01b0384166000818152602081815260409182902080546001600160a01b03191633179055815192835290517fdf36ff0bcfdd6749164c2956e161f450acaecac53aa349fee9a11e59030888869350918290030190a1505092915050565b612510806104b08339019056fe60806040523480156200001157600080fd5b50620000246301ffc9a760e01b620000ba565b620000366380ac58cd60e01b620000ba565b62000048635b5e139f60e01b620000ba565b6200005a63780e9d6360e01b620000ba565b6000620000666200013f565b600a80546001600160a01b0319166001600160a01b038316908117909155604051919250906000907f8be0079c531659141344cd1fd0a4f28419497f9722a3daafe3b4186f6b6457e0908290a35062000143565b6001600160e01b031980821614156200011a576040805162461bcd60e51b815260206004820152601c60248201527f4552433136353a20696e76616c696420696e7465726661636520696400000000604482015290519081900360640190fd5b6001600160e01b0319166000908152602081905260409020805460ff19166001179055565b3390565b6123bd80620001536000396000f3fe608060405234801561001057600080fd5b50600436106101585760003560e01c806370a08231116100c3578063b88d4fde1161007c578063b88d4fde1461050d578063c87b56dd146105d1578063d28d8852146105ee578063d85d3d27146105f6578063e985e9c51461069a578063f2fde38b146106c857610158565b806370a0823114610499578063715018a6146104bf5780638da5cb5b146104c757806395d89b41146104cf578063a22cb465146104d7578063b09f12661461050557610158565b80632f745c59116101155780632f745c59146102cc57806342842e0e146102f85780634cd88b761461032e5780634f6ccce7146104575780636352211e146104745780636c0360eb1461049157610158565b806301ffc9a71461015d57806306fdde0314610198578063081812fc14610215578063095ea7b31461024e57806318160ddd1461027c57806323b872dd14610296575b600080fd5b6101846004803603602081101561017357600080fd5b50356001600160e01b0319166106ee565b604080519115158252519081900360200190f35b6101a0610711565b6040805160208082528351818301528351919283929083019185019080838360005b838110156101da5781810151838201526020016101c2565b50505050905090810190601f1680156102075780820380516001836020036101000a031916815260200191505b509250505060405180910390f35b6102326004803603602081101561022b57600080fd5b50356107a7565b604080516001600160a01b039092168252519081900360200190f35b61027a6004803603604081101561026457600080fd5b506001600160a01b038135169060200135610809565b005b6102846108e4565b60408051918252519081900360200190f35b61027a600480360360608110156102ac57600080fd5b506001600160a01b038135811691602081013590911690604001356108f5565b610284600480360360408110156102e257600080fd5b506001600160a01b03813516906020013561094c565b61027a6004803603606081101561030e57600080fd5b506001600160a01b03813581169160208101359091169060400135610977565b61027a6004803603604081101561034457600080fd5b810190602081018135600160201b81111561035e57600080fd5b82018360208201111561037057600080fd5b803590602001918460018302840111600160201b8311171561039157600080fd5b91908080601f0160208091040260200160405190810160405280939291908181526020018383808284376000920191909152509295949360208101935035915050600160201b8111156103e357600080fd5b8201836020820111156103f557600080fd5b803590602001918460018302840111600160201b8311171561041657600080fd5b91908080601f016020809104026020016040519081016040528093929190818152602001838380828437600092019190915250929550610992945050505050565b6102846004803603602081101561046d57600080fd5b5035610a74565b6102326004803603602081101561048a57600080fd5b5035610a8a565b6101a0610ab2565b610284600480360360208110156104af57600080fd5b50356001600160a01b0316610b13565b61027a610b7b565b610232610c39565b6101a0610c48565b61027a600480360360408110156104ed57600080fd5b506001600160a01b0381351690602001351515610ca9565b6101a0610dae565b61027a6004803603608081101561052357600080fd5b6001600160a01b03823581169260208101359091169160408201359190810190608081016060820135600160201b81111561055d57600080fd5b82018360208201111561056f57600080fd5b803590602001918460018302840111600160201b8311171561059057600080fd5b91908080601f016020809104026020016040519081016040528093929190818152602001838380828437600092019190915250929550610e3c945050505050565b6101a0600480360360208110156105e757600080fd5b5035610e9a565b6101a061111d565b61027a6004803603602081101561060c57600080fd5b810190602081018135600160201b81111561062657600080fd5b82018360208201111561063857600080fd5b803590602001918460018302840111600160201b8311171561065957600080fd5b91908080601f016020809104026020016040519081016040528093929190818152602001838380828437600092019190915250929550611178945050505050565b610184600480360360408110156106b057600080fd5b506001600160a01b0381358116916020013516611216565b61027a600480360360208110156106de57600080fd5b50356001600160a01b0316611244565b6001600160e01b0319811660009081526020819052604090205460ff165b919050565b60068054604080516020601f600260001961010060018816150201909516949094049384018190048102820181019092528281526060939092909183018282801561079d5780601f106107725761010080835404028352916020019161079d565b820191906000526020600020905b81548152906001019060200180831161078057829003601f168201915b5050505050905090565b60006107b282611359565b6107ed5760405162461bcd60e51b815260040180806020018281038252602c815260200180612286602c913960400191505060405180910390fd5b506000908152600460205260409020546001600160a01b031690565b600061081482610a8a565b9050806001600160a01b0316836001600160a01b031614156108675760405162461bcd60e51b81526004018080602001828103825260218152602001806123366021913960400191505060405180910390fd5b806001600160a01b0316610879611366565b6001600160a01b0316148061089a575061089a81610895611366565b611216565b6108d55760405162461bcd60e51b81526004018080602001828103825260388152602001806121ab6038913960400191505060405180910390fd5b6108df838361136a565b505050565b60006108f060026113d8565b905090565b610906610900611366565b826113e3565b6109415760405162461bcd60e51b81526004018080602001828103825260318152602001806123576031913960400191505060405180910390fd5b6108df838383611487565b6001600160a01b038216600090815260016020526040812061096e90836115d3565b90505b92915050565b6108df83838360405180602001604052806000815250610e3c565b600a54600160a81b900460ff16806109ad57506109ad6115df565b806109c25750600a54600160a01b900460ff16155b6109fd5760405162461bcd60e51b815260040180806020018281038252602e815260200180612236602e913960400191505060405180910390fd5b600a54600160a81b900460ff16158015610a3457600a805460ff60a01b1960ff60a81b19909116600160a81b1716600160a01b1790555b8251610a47906006906020860190612027565b508151610a5b906007906020850190612027565b5080156108df57600a805460ff60a81b19169055505050565b600080610a826002846115e5565b509392505050565b60006109718260405180606001604052806029815260200161220d6029913960029190611601565b60098054604080516020601f600260001961010060018816150201909516949094049384018190048102820181019092528281526060939092909183018282801561079d5780601f106107725761010080835404028352916020019161079d565b60006001600160a01b038216610b5a5760405162461bcd60e51b815260040180806020018281038252602a8152602001806121e3602a913960400191505060405180910390fd5b6001600160a01b0382166000908152600160205260409020610971906113d8565b610b83611366565b6001600160a01b0316610b94610c39565b6001600160a01b031614610bef576040805162461bcd60e51b815260206004820181905260248201527f4f776e61626c653a2063616c6c6572206973206e6f7420746865206f776e6572604482015290519081900360640190fd5b600a546040516000916001600160a01b0316907f8be0079c531659141344cd1fd0a4f28419497f9722a3daafe3b4186f6b6457e0908390a3600a80546001600160a01b0319169055565b600a546001600160a01b031690565b60078054604080516020601f600260001961010060018816150201909516949094049384018190048102820181019092528281526060939092909183018282801561079d5780601f106107725761010080835404028352916020019161079d565b610cb1611366565b6001600160a01b0316826001600160a01b03161415610d17576040805162461bcd60e51b815260206004820152601960248201527f4552433732313a20617070726f766520746f2063616c6c657200000000000000604482015290519081900360640190fd5b8060056000610d24611366565b6001600160a01b03908116825260208083019390935260409182016000908120918716808252919093529120805460ff191692151592909217909155610d68611366565b6001600160a01b03167f17307eab39ab6107e8899845ad3d59bd9653f200f220920489ca2b5937696c318360405180821515815260200191505060405180910390a35050565b6007805460408051602060026001851615610100026000190190941693909304601f81018490048402820184019092528181529291830182828015610e345780601f10610e0957610100808354040283529160200191610e34565b820191906000526020600020905b815481529060010190602001808311610e1757829003601f168201915b505050505081565b610e4d610e47611366565b836113e3565b610e885760405162461bcd60e51b81526004018080602001828103825260318152602001806123576031913960400191505060405180910390fd5b610e9484848484611618565b50505050565b6060610ea582611359565b610ee05760405162461bcd60e51b815260040180806020018281038252602f815260200180612307602f913960400191505060405180910390fd5b60008281526008602090815260409182902080548351601f6002600019610100600186161502019093169290920491820184900484028101840190945280845260609392830182828015610f755780601f10610f4a57610100808354040283529160200191610f75565b820191906000526020600020905b815481529060010190602001808311610f5857829003601f168201915b505050505090506060610f86610ab2565b9050805160001415610f9a5750905061070c565b81511561105b5780826040516020018083805190602001908083835b60208310610fd55780518252601f199092019160209182019101610fb6565b51815160209384036101000a600019018019909216911617905285519190930192850191508083835b6020831061101d5780518252601f199092019160209182019101610ffe565b6001836020036101000a038019825116818451168082178552505050505050905001925050506040516020818303038152906040529250505061070c565b806110658561166a565b6040516020018083805190602001908083835b602083106110975780518252601f199092019160209182019101611078565b51815160209384036101000a600019018019909216911617905285519190930192850191508083835b602083106110df5780518252601f1990920191602091820191016110c0565b6001836020036101000a0380198251168184511680821785525050505050509050019250505060405160208183030381529060405292505050919050565b6006805460408051602060026001851615610100026000190190941693909304601f81018490048402820184019092528181529291830182828015610e345780601f10610e0957610100808354040283529160200191610e34565b611180611366565b6001600160a01b0316611191610c39565b6001600160a01b0316146111ec576040805162461bcd60e51b815260206004820181905260248201527f4f776e61626c653a2063616c6c6572206973206e6f7420746865206f776e6572604482015290519081900360640190fd5b60006111f66108e4565b90506112053382600101611745565b611212816001018361175f565b5050565b6001600160a01b03918216600090815260056020908152604080832093909416825291909152205460ff1690565b61124c611366565b6001600160a01b031661125d610c39565b6001600160a01b0316146112b8576040805162461bcd60e51b815260206004820181905260248201527f4f776e61626c653a2063616c6c6572206973206e6f7420746865206f776e6572604482015290519081900360640190fd5b6001600160a01b0381166112fd5760405162461bcd60e51b815260040180806020018281038252602681526020018061210f6026913960400191505060405180910390fd5b600a546040516001600160a01b038084169216907f8be0079c531659141344cd1fd0a4f28419497f9722a3daafe3b4186f6b6457e090600090a3600a80546001600160a01b0319166001600160a01b0392909216919091179055565b60006109716002836117c2565b3390565b600081815260046020526040902080546001600160a01b0319166001600160a01b038416908117909155819061139f82610a8a565b6001600160a01b03167f8c5be1e5ebec7d5bd14f71427d1e84f3dd0314c0f7b2291e5b200ac8c7c3b92560405160405180910390a45050565b6000610971826117ce565b60006113ee82611359565b6114295760405162461bcd60e51b815260040180806020018281038252602c81526020018061217f602c913960400191505060405180910390fd5b600061143483610a8a565b9050806001600160a01b0316846001600160a01b0316148061146f5750836001600160a01b0316611464846107a7565b6001600160a01b0316145b8061147f575061147f8185611216565b949350505050565b826001600160a01b031661149a82610a8a565b6001600160a01b0316146114df5760405162461bcd60e51b81526004018080602001828103825260298152602001806122de6029913960400191505060405180910390fd5b6001600160a01b0382166115245760405162461bcd60e51b81526004018080602001828103825260248152602001806121356024913960400191505060405180910390fd5b61152f8383836108df565b61153a60008261136a565b6001600160a01b038316600090815260016020526040902061155c90826117d2565b506001600160a01b038216600090815260016020526040902061157f90826117de565b5061158c600282846117ea565b5080826001600160a01b0316846001600160a01b03167fddf252ad1be2c89b69c2b068fc378daa952ba7f163c4a11628f55a4df523b3ef60405160405180910390a4505050565b600061096e8383611800565b303b1590565b60008080806115f48686611864565b9097909650945050505050565b600061160e8484846118df565b90505b9392505050565b611623848484611487565b61162f848484846119a9565b610e945760405162461bcd60e51b81526004018080602001828103825260328152602001806120dd6032913960400191505060405180910390fd5b60608161168f57506040805180820190915260018152600360fc1b602082015261070c565b8160005b81156116a757600101600a82049150611693565b60608167ffffffffffffffff811180156116c057600080fd5b506040519080825280601f01601f1916602001820160405280156116eb576020820181803683370190505b50859350905060001982015b831561173c57600a840660300160f81b8282806001900393508151811061171a57fe5b60200101906001600160f81b031916908160001a905350600a840493506116f7565b50949350505050565b611212828260405180602001604052806000815250611b11565b61176882611359565b6117a35760405162461bcd60e51b815260040180806020018281038252602c8152602001806122b2602c913960400191505060405180910390fd5b600082815260086020908152604090912082516108df92840190612027565b600061096e8383611b63565b5490565b600061096e8383611b7b565b600061096e8383611c41565b600061160e84846001600160a01b038516611c8b565b815460009082106118425760405162461bcd60e51b81526004018080602001828103825260228152602001806120bb6022913960400191505060405180910390fd5b82600001828154811061185157fe5b9060005260206000200154905092915050565b8154600090819083106118a85760405162461bcd60e51b81526004018080602001828103825260228152602001806122646022913960400191505060405180910390fd5b60008460000184815481106118b957fe5b906000526020600020906002020190508060000154816001015492509250509250929050565b6000828152600184016020526040812054828161197a5760405162461bcd60e51b81526004018080602001828103825283818151815260200191508051906020019080838360005b8381101561193f578181015183820152602001611927565b50505050905090810190601f16801561196c5780820380516001836020036101000a031916815260200191505b509250505060405180910390fd5b5084600001600182038154811061198d57fe5b9060005260206000209060020201600101549150509392505050565b60006119bd846001600160a01b0316611d22565b6119c95750600161147f565b6060611ad7630a85bd0160e11b6119de611366565b88878760405160240180856001600160a01b03168152602001846001600160a01b0316815260200183815260200180602001828103825283818151815260200191508051906020019080838360005b83811015611a45578181015183820152602001611a2d565b50505050905090810190601f168015611a725780820380516001836020036101000a031916815260200191505b5095505050505050604051602081830303815290604052906001600160e01b0319166020820180516001600160e01b0383818316178352505050506040518060600160405280603281526020016120dd603291396001600160a01b0388169190611d28565b90506000818060200190516020811015611af057600080fd5b50516001600160e01b031916630a85bd0160e11b1492505050949350505050565b611b1b8383611d37565b611b2860008484846119a9565b6108df5760405162461bcd60e51b81526004018080602001828103825260328152602001806120dd6032913960400191505060405180910390fd5b60009081526001919091016020526040902054151590565b60008181526001830160205260408120548015611c375783546000198083019190810190600090879083908110611bae57fe5b9060005260206000200154905080876000018481548110611bcb57fe5b600091825260208083209091019290925582815260018981019092526040902090840190558654879080611bfb57fe5b60019003818190600052602060002001600090559055866001016000878152602001908152602001600020600090556001945050505050610971565b6000915050610971565b6000611c4d8383611b63565b611c8357508154600181810184556000848152602080822090930184905584548482528286019093526040902091909155610971565b506000610971565b600082815260018401602052604081205480611cf0575050604080518082018252838152602080820184815286546001818101895560008981528481209551600290930290950191825591519082015586548684528188019092529290912055611611565b82856000016001830381548110611d0357fe5b9060005260206000209060020201600101819055506000915050611611565b3b151590565b606061160e8484600085611e65565b6001600160a01b038216611d92576040805162461bcd60e51b815260206004820181905260248201527f4552433732313a206d696e7420746f20746865207a65726f2061646472657373604482015290519081900360640190fd5b611d9b81611359565b15611ded576040805162461bcd60e51b815260206004820152601c60248201527f4552433732313a20746f6b656e20616c7265616479206d696e74656400000000604482015290519081900360640190fd5b611df9600083836108df565b6001600160a01b0382166000908152600160205260409020611e1b90826117de565b50611e28600282846117ea565b5060405181906001600160a01b038416906000907fddf252ad1be2c89b69c2b068fc378daa952ba7f163c4a11628f55a4df523b3ef908290a45050565b606082471015611ea65760405162461bcd60e51b81526004018080602001828103825260268152602001806121596026913960400191505060405180910390fd5b611eaf85611d22565b611f00576040805162461bcd60e51b815260206004820152601d60248201527f416464726573733a2063616c6c20746f206e6f6e2d636f6e7472616374000000604482015290519081900360640190fd5b60006060866001600160a01b031685876040518082805190602001908083835b60208310611f3f5780518252601f199092019160209182019101611f20565b6001836020036101000a03801982511681845116808217855250505050505090500191505060006040518083038185875af1925050503d8060008114611fa1576040519150601f19603f3d011682016040523d82523d6000602084013e611fa6565b606091505b5091509150611fb6828286611fc1565b979650505050505050565b60608315611fd0575081611611565b825115611fe05782518084602001fd5b60405162461bcd60e51b815260206004820181815284516024840152845185939192839260440191908501908083836000831561193f578181015183820152602001611927565b828054600181600116156101000203166002900490600052602060002090601f016020900481019282601f1061206857805160ff1916838001178555612095565b82800160010185558215612095579182015b8281111561209557825182559160200191906001019061207a565b506120a19291506120a5565b5090565b5b808211156120a157600081556001016120a656fe456e756d657261626c655365743a20696e646578206f7574206f6620626f756e64734552433732313a207472616e7366657220746f206e6f6e20455243373231526563656976657220696d706c656d656e7465724f776e61626c653a206e6577206f776e657220697320746865207a65726f20616464726573734552433732313a207472616e7366657220746f20746865207a65726f2061646472657373416464726573733a20696e73756666696369656e742062616c616e636520666f722063616c6c4552433732313a206f70657261746f7220717565727920666f72206e6f6e6578697374656e7420746f6b656e4552433732313a20617070726f76652063616c6c6572206973206e6f74206f776e6572206e6f7220617070726f76656420666f7220616c6c4552433732313a2062616c616e636520717565727920666f7220746865207a65726f20616464726573734552433732313a206f776e657220717565727920666f72206e6f6e6578697374656e7420746f6b656e496e697469616c697a61626c653a20636f6e747261637420697320616c726561647920696e697469616c697a6564456e756d657261626c654d61703a20696e646578206f7574206f6620626f756e64734552433732313a20617070726f76656420717565727920666f72206e6f6e6578697374656e7420746f6b656e4552433732314d657461646174613a2055524920736574206f66206e6f6e6578697374656e7420746f6b656e4552433732313a207472616e73666572206f6620746f6b656e2074686174206973206e6f74206f776e4552433732314d657461646174613a2055524920717565727920666f72206e6f6e6578697374656e7420746f6b656e4552433732313a20617070726f76616c20746f2063757272656e74206f776e65724552433732313a207472616e736665722063616c6c6572206973206e6f74206f776e6572206e6f7220617070726f766564a2646970667358221220aa449272f88df38f55d4d02a56d4b659e870dcf5d8a749a944bf6ad3c9f9ce2464736f6c63430007030033a2646970667358221220021b06f122681ca05e9d06677bd824ca412ec503fd8c3042af695689a8439ef864736f6c63430007030033",
  "linkReferences": {},
  "deployedLinkReferences": {}
}